:1000000000180020C1000000851400004914000001
:10001000491400004914000049140000491400006C
:100020004914000049140000491400008514000020
:1000300085140000491400006926000071260000A4
:10004000851400008514000085140000851400004C
:10005000851400008514000085140000851400003C
:10006000851400008514000085140000851400002C
:10007000851400008514000085140000851400001C
:10008000851400008514000085140000851400000C
:1000900085140000851400008514000085140000FC
:1000A000411800008514000085140000851400002C
:1000B00085140000851400008514000085140000DC
:1000C000F8B501F0E3F90821474A484B1A60484A5D
:1000D000484B1A60484A494B1A60494B1A780A4201
:1000E00002D01A780A431A702A22464B46481A70E0
:1000F00000234649464C1A188A4203D2E558043375
:100100001560F8E70021434B434A934201D202C3F2
:10011000FBE70023414A424958589446985004331B
:10012000C02BF9D100210326FF2580248A083D4BEE
:100130009200D2180B002F003340DB009F40106864
:100140000131B84307002000984003003B4313608F
:100150002029EBD16246344B1A608A22334B1A7045
:10016000334B663A5A707C321A709E3A9979114232
:10017000FCD0102299791142FCD10C209A792C499B
:100180000240082AFAD1053A0A713D324A71203AF2
:1001900099791142FCD0402299791142FCD025492D
:1001A000254A11602021224A117014399A790A4097
:1001B0000C2AFBD1214A224B1A60224A224B1A6098
:1001C0000022224B1A60224B07321A60214A224B2E
:1001D0001A6062B601F008FA03F0D4FB01F05CF992
:1001E00002F060FAFEE7C046300004F034800440BC
:1001F000823F0000388004400100000F3C80044032
:1002000002D0074000E007403002002078030020C1
:100210002C3D0000780300203C06002000F9FF1F61
:100220000000000000E400E008ED00E0005006409F
:10023000004006400000011044800440C000050555
:10024000048004407FBB000014E000E018E000E000
:1002500010E000E00000202020ED00E0FFFFFFFFA5
:10026000FFFFFFFFFFFFFFFFFFFFFFFFFFFFFFFF9E
:10027000FFFFFFFFFFFFFFFFFFFFFFFFFFFFFFFF8E
:10028000FFFFFFFFFFFFFFFFFFFFFFFFFFFFFFFF7E
:10029000FFFFFFFFFFFFFFFFFFFFFFFFFFFFFFFF6E
:1002A000FFFFFFFFFFFFFFFFFFFFFFFFFFFFFFFF5E
:1002B000FFFFFFFFFFFFFFFFFFFFFFFFFFFFFFFF4E
:1002C000FFFFFFFFFFFFFFFFFFFFFFFFFFFFFFFF3E
:1002D000FFFFFFFFFFFFFFFFFFFFFFFFFFFFFFFF2E
:1002E000FFFFFFFFFFFFFFFFFFFFFFFFFFFFFFFF1E
:1002F000FFFFFFFFFFFFFFFFFFFFFFFFFFFFFFFF0E
:10030000FFFFFFFFFFFFFFFFFFFFFFFFFFFFFFFFFD
:10031000FFFFFFFFFFFFFFFFFFFFFFFFFFFFFFFFED
:10032000FFFFFFFFFFFFFFFFFFFFFFFFFFFFFFFFDD
:10033000FFFFFFFFFFFFFFFFFFFFFFFFFFFFFFFFCD
:10034000FFFFFFFFFFFFFFFFFFFFFFFFFFFFFFFFBD
:10035000FFFFFFFFFFFFFFFFFFFFFFFFFFFFFFFFAD
:10036000FFFFFFFFFFFFFFFFFFFFFFFFFFFFFFFF9D
:10037000FFFFFFFFFFFFFFFFFFFFFFFFFFFFFFFF8D
:10038000FFFFFFFFFFFFFFFFFFFFFFFFFFFFFFFF7D
:10039000FFFFFFFFFFFFFFFFFFFFFFFFFFFFFFFF6D
:1003A000FFFFFFFFFFFFFFFFFFFFFFFFFFFFFFFF5D
:1003B000FFFFFFFFFFFFFFFFFFFFFFFFFFFFFFFF4D
:1003C000FFFFFFFFFFFFFFFFFFFFFFFFFFFFFFFF3D
:1003D000FFFFFFFFFFFFFFFFFFFFFFFFFFFFFFFF2D
:1003E000FFFFFFFFFFFFFFFFFFFFFFFFFFFFFFFF1D
:1003F000FFFFFFFFFFFFFFFFFFFFFFFFFFFFFFFF0D
:10040000FFFFFFFFFFFFFFFFFFFFFFFFDEF9FFFF23
:1004100010B5064C2378002B07D1054B002B02D0DA
:10042000044800E000BF0123237010BD78030020C2
:10043000000000002C3D0000084B10B5002B03D03D
:100440000749084800E000BF07480368002B00D1B7
:1004500010BD064B002BFBD09847F9E700000000C9
:100460007C0300202C3D00007803002000000000E9
:1004700070B5050008000C0003F0B3FA2B68020009
:1004800021005B68280098470400280002F0F8F873
:10049000001970BD10B502490248FFF7E9FF10BD11
:1004A000F03900008802002070B514491448FFF7A5
:1004B000DFFF144E0121307800F0F0FF124D0121D2
:1004C000287800F0EBFF114C0121207800F0E6FFC6
:1004D000642001F06FF830680021C0B200F0DEFF48
:1004E00028680021C0B200F0D9FF20680021C0B206
:1004F00000F0D4FF642001F05DF870BD023A000006
:100500008802002050020020400200204402002007
:1005100010B505490548FFF7ABFF054B00201968EA
:10052000C9B200F0F3FE10BD173A000088020020A7
:10053000DC03002003689971026813785BB2002B1A
:10054000FBDA9079C0B27047F7B50C25C0B24543CD
:100550000E4EC9017319A85901931B7A1405037231
:100560000A0080231021240D1A4023120B43084F48
:100570001A4311003800FFF7DDFF3800E1B2FFF742
:10058000D9FF019AAB59127A1A71F7BD883A000067
:100590005C020020294B70B51B6804000D00022B83
:1005A00014D1042848D8012946D11003801A7F218C
:1005B00002F060FA2900224B2140013C02001B6836
:1005C000E00F041902336410181B33E00220D91E17
:1005D000814312D1082C2FD8012D2DD11003801A60
:1005E0007F3102F047FA29002140013C0200144B00
:1005F000E00F041964101B681BE0042B1CD1E31EE0
:10060000032B19D9012D17D1100325400C4E801A48
:100610007F21022C06D802F02DFA33680200E9B2DD
:10062000581C07E002F026FA0200013C3368E9B2E8
:100630006410E018FFF788FF70BDC046DC0300209F
:1006400048020020F8B54F4B1B68002B02D1082848
:1006500006D995E05A1E012A49D8042800D98FE00E
:100660000126494A494B5143CC17A404A40C6418F1
:10067000451E474AA413E418AB009C50EA0F5519D5
:10068000444A6D1012680640AD18434A985803F06A
:1006900031F9424902F086FF414902F06FFE071C22
:1006A000200003F027F9011C381C02F027FB3D490C
:1006B00002F064FE3C4B196802F096FC002102F047
:1006C0001DFB0021041C02F0D3FA002807D1354994
:1006D000201C02F0E1FA002802D0324C00E0002495
:1006E000201C03F0E5F831000200280046E0042B4E
:1006F00046D1022844D8244A012713004B43DC1773
:10070000A404A40CE418214BA413E418451E204BA8
:10071000AD00EC501F4B07401E681F4BE85803F01C
:10072000E9F81E4902F03EFF1D4902F027FE051CB4
:10073000200003F0DFF8011C281C02F0DFFA194941
:1007400002F01CFE184B196802F04EFC002102F06A
:10075000D5FA0021041C02F08BFA002807D11149B8
:10076000201C02F099FA002802D00E4C00E0002470
:10077000201C03F09DF8390002003000FFF7E4FE72
:10078000F8BDC046DC0300206109000050FBFFFFFC
:100790009803002048020020BC0300200000104203
:1007A0000000C84200F07F4554020020F8B5012344
:1007B000104A8340002902D011780B4302E01178DF
:1007C00099430B00FF260C240B4F13703B680B4D15
:1007D000334063435959EB181B7A09480B7211785F
:1007E000FFF7A8FE3B681E40744363592C19227A18
:1007F0001A71F8BD950300204C020020883A0000D1
:100800005C020020F8B5424800F0D8FB414B0121C2
:1008100018680C25C0B200F073FE3F4B0221186827
:10082000C0B200F06DFE3D4C3D49200000F052FC8E
:1008300020003C4900F050FC20003B4900F04EFCF9
:1008400020003A4900F04CFC0024394FE6B23B68E6
:100850000121F018C0B200F053FE3B683549F3188F
:10086000DAB213006B435A58CB181B7A322013713B
:10087000013400F09FFE042CE7D10024E0B20121F6
:10088000FFF794FF0134322000F094FE082CF5D1DC
:10089000642000F08FFE0024E0B20021FFF786FF05
:1008A0000134322000F086FE082CF5D1642000F0DF
:1008B00081FE214A214B00201A60214A214B1A60F7
:1008C000214A224B1A60224A224B1A60224B234AA9
:1008D0001A6000F0FFFC224B052801DC186004E0E0
:1008E00000200100186000F011FD1E4B0121186866
:1008F000C0B200F005FE1C4B01211868C0B200F028
:10090000FFFD1A4B01211868C0B200F0F9FDF8BDD7
:100910005C0200204C02002058020020E00300206E
:10092000A90900009504000011050000A9040000B9
:1009300048020020883A0000E1090000A8050020D4
:1009400071090000A0050020450600006C0500208C
:1009500095050000A40500205C050020F10D0000B5
:10096000DC0300205002002040020020440200204E
:100970000C4B10B51B68002B07D1082811D8013883
:10098000C0B20021FFF712FF0BE05A1E012A01D965
:10099000052B02D1042804D8F1E7042B01D1022849
:1009A000EDD910BDDC03002010B50A490A48FFF755
:1009B0005FFD0024E0B200210134FFF7F7FE082CB0
:1009C000F8D1064A13680133062B00D100231360C7
:1009D00010BDC046283A000088020020DC03002039
:1009E000F0B587B001927E4A0700136808000592AF
:1009F000002B4AD1082F00D9F0E07C1E794BA600CD
:100A0000F150E30F1C19784B64101B680125E418A2
:100A100002F070FF754902F0C5FD754902F0AEFCA9
:100A2000744B0290F05802F065FF011C029802F02E
:100A300065F9714902F0A2FC704B3D40196802F063
:100A4000D3FA002102F05AF90021061C02F010F935
:100A5000002807D16849301C02F01EF9002802D096
:100A6000654E00E00026301C02F022FF2900020043
:100A70002000FFF769FD019B781EC0B20121002B09
:100A800000D10021FFF792FEA8E05A1E012A56D895
:100A9000042F00D9A2E07B1E524A9E00B150DA0F0B
:100AA000D3185B100293029A4F4C94462368634418
:100AB000049301233B40039302F01CFF4B4902F0D7
:100AC00071FD4B4902F05AFC4A4B051CF05802F0EC
:100AD00011FF011C281C02F011F9474902F04EFCDD
:100AE000464B196802F080FA002102F007F9002154
:100AF000051C02F0BDF8002807D13F49281C02F070
:100B0000CBF8002802D03C4D00E00025281C02F064
:100B1000CFFE039902000498FFF716FD059B1B68A2
:100B2000012BA8D1019B7F211803C01A01F0A2FF5D
:100B300023680299023302005818039999E7042B9D
:100B400047D1022F4AD8274B7E1E274DB600F150C1
:100B50002B680124029302F0CDFE244902F022FD0D
:100B6000234902F00BFC234B0390F05802F0C2FE25
:100B7000011C039802F0C2F81F4902F0FFFB1F4B53
:100B80003C40196802F030FA002102F0B7F8002169
:100B9000061C02F06DF8002807D11749301C02F03E
:100BA0007BF8002802D0144E00E00026301C02F032
:100BB0007FFE210002000298FFF7C6FC019B7F2107
:100BC0001803C01A01F056FF2B6802002100981C80
:100BD0004FE7052B02D1042F00D84CE707B0F0BD3A
:100BE000DC030020BC03002048020020000010426B
:100BF0000000C8429803002000F07F455402002006
:100C00002F4B10B51C68002C10D12E4B21001868FA
:100C1000C0B200F043FC2C4B21001868C0B200F0B9
:100C20003DFC2A4B21001868C0B245E0012C0AD1D6
:100C3000244B21001868C0B200F030FC224B002188
:100C40001868C0B20BE0022C10D11E4B01211868AD
:100C5000C0B200F023FC01211B4B1868C0B200F0A9
:100C60001DFC1A4B00211868C0B225E0032C04D1EA
:100C7000144B01211868C0B212E0042C0AD1114BA8
:100C800000211868C0B200F009FC0F4B0021186861
:100C9000C0B20BE0052C11D100210A4B1868C0B27C
:100CA00000F0FCFB0121084B1868C0B200F0F6FB15
:100CB0000121064B1868C0B200F0F0FB10BDC04621
:100CC000DC030020500200204002002044020020EB
:100CD00010B5054800F0ACFAFFF792FF002001F0D4
:100CE0007BF90028FAD110BDE003002010B5040004
:100CF0000121FFF75BFD052000F05CFC00212000D6
:100D0000FFF754FD10BDFFFF10B503005D2969D842
:100D1000080001F011FE3867673167673667672F93
:100D200067675867675D52673655672F6767426721
:100D3000674A67673667522F67555867675D676709
:100D40003667672F67673A67673E67673667672F5B
:100D500067675867675D52673655672F67674267F1
:100D6000674A67673667522F67555867675D6767D9
:100D70003667672F062A35D100211800FFF716FDC8
:100D800030E0062A2ED10121F7E7182A25D8164986
:100D900006E0182A24D814490AE0182A22D8134950
:100DA000D1400A00D2071DD5EDE7182A1AD80F49FD
:100DB000D1400A00D20715D5DEE7102A12D1E2E7AA
:100DC000102A0FD1D8E7062ADDD00C2A0AD1DAE79B
:100DD000062AD1D00C2A05D1CEE7302AD3D001E0A3
:100DE000302AC9D010BDC04640100101401000019A
:100DF000F7B50600F8287BD1634B1F78012F00D090
:100E0000C1E0624B624C1D6801936A1E012A15D82D
:100E10000420FFF76BFF217818220520FFF774FFED
:100E2000217830220620FFF76FFF5A4B1B78012BE9
:100E30003ED101210720FFF7B9FC39E0032D15D180
:100E40000020FFF753FF217806223800FFF75CFFF0
:100E500021780C220220FFF757FF2178102228006A
:100E6000FFF752FF2178182204200CE0042D1DD139
:100E70000220FFF73BFF21780C220320FFF744FFFD
:100E8000182228002178FFF73FFF21783022052023
:100E9000FFF73AFF3F4D2978012905D12378022B2E
:100EA00002D80620FFF782FC2B78C0E7052DAFD0D3
:100EB00023780133DBB2602B00D100232370237829
:100EC000032B0CD1334B1B78012B08D1019B1B68E2
:100ED000033B012B03D800210620FFF767FC237892
:100EE000062B50D12B4B1A78012A4CD100221A70B4
:100EF000B31DDBB2012B09D80123234A1370254A05
:100F000013700023244A1370214A3BE0FC2E3AD18F
:100F10001E4B1C68631E012B13D9052C11D0032C0A
:100F200012D100210800FFF741FC00210120FFF74A
:100F30003DFC00210220FFF739FC00212000FFF7D3
:100F400035FC002104200BE0042C17D100210220E5
:100F5000FFF72CFC00210320FFF728FC00212000D4
:100F6000FFF724FC00210520FFF720FC00210620CC
:100F7000FFF71CFC00210720FFF718FC0023024AA2
:100F80001370044A1370F7BD50040020DC030020E6
:100F90009603002094030020B803002010B500F051
:100FA00081F9012303491A000968034800F062F837
:100FB00010BDC04658020020E0030020416830B553
:100FC0000A684B681468174D234313605023026866
:100FD0000C24D370002302689370036841681B7867
:100FE000037CCA18127F083362439B00AA185B581F
:100FF00052681360427C8B181B7C0432634392005E
:10100000EB188A185B6852681A60837CCA18283209
:1010100012780A3354439B002C19CB1862685B6822
:10102000136030BD883A000080220021036A520418
:101030001B6810B59A600368997003681B78C369D0
:101040001C68A3681343A360036A1C68A368134366
:10105000A36003230375406A0A0003681B6898476E
:1010600010BDFFFF10B50248FFF7DEFF10BDC04600
:101070005C02002070B504000800322161605F311D
:10108000FF31A1609131FF310025E16001216561EF
:10109000A561E56125626562A562E5622563656318
:1010A000A563E56325646564A56425656565A56537
:1010B000E5652566E1662060AA4201D0256100E071
:1010C0002161C0B20221002B00D1190000F018FAF2
:1010D000200070BD41617047816370474164704773
:1010E0000165704713B5514B04001B680193019AC9
:1010F000436EC06DD31A072800D995E001F01CFC9F
:10110000040E2B3E94946F7F002900D18CE00023C5
:1011100001212366E1656266A36685E000290AD1A4
:1011200060680131834203D2236E2166E3657BE070
:101130002166022327E0E268934275D9A36B002B56
:1011400000D09847E36B002B01D0206C9847E36DEB
:101150002366062310E06268002905D0934203D27B
:10116000236EE365022352E093425DD3A36E013305
:10117000A366022323660133E36555E0002905D009
:1011800003232366023BE36562664DE0A168A26E1D
:101190008B4202D8E36E9A4246D1012A08D1636994
:1011A000002B00D09847A369002B12D0E0690FE014
:1011B000022A05D1236A002B00D09847636A04E015
:1011C000E36A002B00D09847236B002B01D0A06A64
:1011D00098470023E3652366A366636624E000293D
:1011E00003D1062323660133CDE7236D002B00D006
:1011F0009847636D002B17D0A06D984714E0626884
:10120000002906D0934204D2236EE36507232366A8
:101210000AE0934208D3636C002B00D09847A36C7C
:10122000002BD6D0E06CD3E713BDC0465404002099
:1012300010B50400006800280ADBC0B200F04EF9C7
:101240002369191A4B424B412000D9B2FFF74AFFDC
:1012500010BDFFFF0E4B10B51940C023DB0419432E
:101260000C4B19600C4B1A6072B601230B4C0343F4
:101270002000984762B670232278134000D0237074
:101280008021074AC90013680B43136010BDC04694
:10129000FCFFFF0004000240080002400000024082
:1012A0000C3000F0F823802208491B0252021888F3
:1012B000884203D1064A023B138006E00233934280
:1012C000F5D10222024B52421A807047FFFF000004
:1012D0005204002070B50C4D04002A88002A02D167
:1012E000FFF7E0FF2A88FF207F2C0CD8F8230500A9
:1012F0001B029A4207D319880E002E40B44200D137
:10130000080A0233F5E770BD52040020F0B5454EDF
:10131000A7B005000F000E22434902A8348802F04E
:1013200057FB01967F2D00D97AE0211E03D1FFF7EC
:10133000B9FF019B19883D4A023191420AD8019BAD
:101340003F023D4319808B0701D4394A00E02D0448
:101350002A4362E00023FF2206AE9A550133802B18
:10136000FBD1F8238020FF241B0240021A881100C1
:1013700021407F2901D8120A725402338342F5D1E9
:101380002C4C2D4B7755236072B601272B4D02ABA9
:101390001F432800B84762B670232A781A402300FA
:1013A000002A00D02A708021254CC90022680A43F7
:1013B0002260244A1A6072B62048B84762B6702389
:1013C00080212A78C9001A402300002A01D01B4836
:1013D0000270F8251400002718682D0201431960D7
:1013E000F35DFF2B0FD00222154202D11C023C43B9
:1013F00008E03A0414431B061C432200290002A8FB
:10140000FFF728FF02350137802FE9D1019B1D80AE
:10141000AB0705D52900064A224302A8FFF71AFFA9
:1014200027B0F0BD52040020783A0000FFFF000012
:101430000000FFFF0400024000F800090000024025
:101440000C3000F000FC000970B580258026ED020C
:10145000F6000B4C23682B4201D000F0F1F9236811
:10146000334201D000F00EF823681B0501D500F0CF
:1014700009F82368DB04ECD500F004F8E9E7C0467E
:101480003480044010B5FFF7DFFFFFFF0022014B5F
:101490001A607047008104407047FFFF10B51A289A
:1014A00018D80C2358430C4A835810181C7D027A14
:1014B000224205D0002901D01A710BE01A7209E00E
:1014C00043681A68002902D003210A4301E002217F
:1014D0008A431A6010BDC046883A000000231A28CB
:1014E0000AD80C335843054A83581018007A1B7CDD
:1014F0000340581E8341DBB218007047883A000051
:10150000F0B51A282FD80C2217004743164CE519BE
:101510006B682600012901D0042911D150433458A9
:101520003018257D027A20202A432275A2225200FB
:101530001A601A68042901D1024313E0824311E0C2
:1015400038592C7A027DA24302758022002908D0E6
:10155000022902D10422FF3204E00022032901D132
:10156000812252001A60F0BD883A000072B60C4B1E
:101570001A680C4B18680C4B1B6862B65B0104D5EB
:10158000322393429B415B42C018084B9A1A084B86
:101590005A43FA239B005843920D10187047C046D7
:1015A00018E000E05404002004ED00E07FBB0000E0
:1015B0005555010070B50400FFF7D8FF0500002C59
:1015C0000FD0FFF7D3FF074B401B984206D9013CD1
:1015D000002C06D0FA239B00ED18F2E701F08EF8FC
:1015E000EFE770BDE703000080221E4BD20510B567
:1015F0001A608022002012061A601B4B1B491860DB
:101600001B4B1C4A1960282313601B4A1B4C136098
:101610001B4A13601B4A13601B4A13601B4A13606A
:10162000092222601A4C20601A4C21601A4C236057
:101630001A4C23601A4C22601A4C20601A48016030
:101640001A490B601A490B601A4B1A6001F0C6F870
:101650001920FFF7AFFF00F0EBFB1420FF30FFF77E
:10166000A9FF10BD00E100E004800340FFBF0000BF
:10167000088003400C800340148003400080034036
:101680001C800340248003402C80034034800340AE
:1016900004900340089003400C90034014900340D2
:1016A0000090034004A0034008A003400CA00340A6
:1016B00014A0034000A003400223F0B50A4A0B4ED9
:1016C0001478C8272343DB00F518686008480578BC
:1016D000002D00D1403F09040F43F75001235D4026
:1016E0005C4005701470F0BDCC04002000F8FF1FB2
:1016F0004C050020431E10B50020042B0ED872B6F6
:10170000074A99008858002807D044685B008C502D
:10171000044904885A5A121B5A5262B610BDC04678
:10172000B8040020E2050020431E0020042B09D845
:1017300072B6054A9B009B58002B02D001305B68B3
:10174000FAE762B67047C04610050020F8B572B6D9
:101750000123174A082594461E00164964465A1E5E
:10176000A25C2A421AD05F017C589A00002C05D155
:10177000CB1908305860104BCB5109E03243D200EE
:101780005458002C0AD18B18083058600B4B8B50E2
:101790000B4A1378013B137062B608E00133062B45
:1017A000DCD162B60022064B1A7000F0B7FBF8BD20
:1017B000F83B000000F8FF1F88004000C800400010
:1017C00042050020421E10B5042A30D802238000B2
:1017D0001843174BC0001B1872B6164CA05C0328A8
:1017E0000BD801F0A9F816040207052012E008330F
:1017F00002200FE0083304200CE00F489200145838
:101800000E4B002C01D1115001E0985841609950C5
:101810000CE00320A0540A0008325A60C8221807BE
:1018200000D4403A098809040A431A6062B610BD20
:1018300000F8FF1F70040020100500202405002080
:10184000F7B5BA4B1C781D000423E4B21C421FD02C
:10185000B74B1B78002B18D0B64A1378DBB2002B9D
:1018600005D0013BDBB21370002B00D100BEB24AA1
:101870001378DBB2002B06D0013BDBB21370002BD8
:1018800001D100F0A1FE00F08FFB0422A74B1A70DB
:101890000822224000D161E2A84BA94F1B78DBB29D
:1018A0009C08E4001D093C19002D00D0E7E12368E5
:1018B00062689806000F01380C2800D9DBE101F0BE
:1018C00045F89C019C01DA01DA01DA01DA01DA015A
:1018D000DA01B701DA01DA01DA010D0011685368A3
:1018E00000229848984E026001207360974B316047
:1018F0002360974C89B22070964C3A61BA6101938B
:10190000A14218D8D023DB00994200D3E7E081231D
:101910005B00994200D1C4E006D8802900D1A9E03B
:10192000822900D1ABE0FAE08B4B994200D1C7E0AD
:10193000FF33FF331AE0894B994200D15AE110D8A6
:1019400088231B01994200D18EE08033994200D058
:10195000E5E03C003D00B278754B20341A70C0358C
:1019600008E07F4B994200D1CEE07E4B994200D1F6
:10197000D9E0D4E080222368134203D0606808389D
:1019800000F0CCFA0834AC42F4D100242500764BA8
:10199000E058002805D04368009300F0BFFA009893
:1019A000F7E7714B1851714BE050714BE05800282C
:1019B00005D04368009300F0B1FA0098F7E76C4B4C
:1019C0006C4A18516C4BE0506B00D0526B4BE85C8A
:1019D0000238032807D800F0AFFF020402040022F7
:1019E00000E001225A5501350434052DCFD10023E2
:1019F0000124634D2B70634B6349621EE3188A5CBC
:101A00009B001A7008231A4220D000F069FA630183
:101A1000002805D0FA18083050605C4AFA5003E0FC
:101A2000F8502B7801332B7000F05AFA0122A300F2
:101A30001343DB00002805D0FA1808305060019AE3
:101A4000FA5003E0F8502B789B182B7002210023EA
:101A5000A2001143C9007B5003210A438A4001348C
:101A6000BB50062CC7D1A0E0314B494C1B782370EA
:101A700003009BE0464C02232270627096E07F23B5
:101A8000B1880B40052B4AD8414C9B0022706270F4
:101A9000404A9B181A7802231A4200D186E020702F
:101AA00084E07F23B2881A40052A38D87388002B37
:101AB00035D10220374992005218117881432CE029
:101AC0007F23B2881A40052A29D87388002B26D193
:101AD0000220304992005218117801431DE07288AB
:101AE000B1882D4B5C68002C19D01888904209D120
:101AF0005888884206D1120A032A01D1237855E07A
:101B00001B8953E00C33EDE7B388002B4CD1234AFB
:101B10001168234A1160B178224A117045E00F2202
:101B20001C4B1A7066E000233FE0C046802007404F
:101B30004B050020CD040020AC050020902007407C
:101B400000F8FF1F5804002038050020C80040009E
:101B50004C05002081060000020300002120000047
:101B60002122000021230000B80400205C04002092
:101B700010050020E205002024050020700400204C
:101B80004205002030C80110F83B000088004000EA
:101B900043050020C0200740003C00005404002002
:101BA00038060020BC05002013001C00F5889D426B
:101BB00000D91D002E00402D00D940262000310004
:101BC000FFF77AFDA419AD1B03D12F00402E04D0DE
:101BD00010E04027AF4200D92F0020003900FFF766
:101BE0006BFDE419ED1B01D1402F03D1774B1C6035
:101BF000774B1D800122774B3CE0774B7749188863
:101C0000884212D19B88002B0BD17549D05CC854F7
:101C10000133072BFAD10B68862B02D10F22714BAF
:101C20001A7000210800FFF747FD6F4B236022E088
:101C3000664F3E68002E13D0654B1C882500402C53
:101C400000D9402529003000FFF736FD641B604BAA
:101C5000A4B21C80002C01D1402D00D174193C602D
:101C6000A0225D4BD2001988914204D100225A7003
:101C70009A785E4B1A700122564B1A706AE008225D
:101C80006068013D0838EDB2134037D000F046F9E6
:101C90005749A8004258574B002A1CD05668465056
:101CA0001100585D0831616003280BD800F044FE34
:101CB00002040608032104E0022102E0052100E0FD
:101CC000042159550821C8230C4200D1403B1288F9
:101CD000120413433DE0585D032808D800F02CFEA1
:101CE0003A3A0204002200E001225A5532E008226A
:101CF0001440621E944102345C552BE02268110CA2
:101D00008AB2028000291ED03B4943804360AB0069
:101D10005F583A4E002F01D1585001E0F158486009
:101D200037496D00F0506B5AD2186A5200F0D8F85B
:101D3000002802D00830606005E0324A2060137845
:101D40000133137006E008231C4201D12E4B00E042
:101D5000254B236008222D4B1A7072E501200442A6
:101D60001ED002231B49284C0B70294B294E1A7098
:101D7000294B1C609C60294C1A61DC600D249A611F
:101D80005E60274B1C70FF23264C2370174C2B7072
:101D90002270254A13709F22244B1A70087013E09A
:101DA00063B2002B04DA0D221D4B1A7080232B70B6
:101DB0000222144204D01B490B78DBB20B702A704C
:101DC00010231C4200D02B70F7BDC04658040020E1
:101DD0004005002094200740380500202120000005
:101DE00030060020CD040020C800400098200740A5
:101DF0001005002070040020B80400205C040020BE
:101E0000E2050020420500208800400080200740B5
:101E1000CC0400207804002000F8FF1FD00400202C
:101E2000C0200740882007408C20074084200740BE
:101E300010B500F043FD002211001B4BD150981843
:101E400008324160C02AF9D180201849C0020A68CE
:101E500002430A601A0A1649D2B20A701A0C1549CE
:101E6000D2B20A70144A1B0E1370FF23134A0020CB
:101E70001370134A13491370134A137001220A7026
:101E80001249087012490A70124A116899430B00EE
:101E900070210B43136080220F4B52041A601022F2
:101EA0000E4B1A7010BDC04600F8FF1F348004406E
:101EB0009C200740B0200740B42007408020074006
:101EC0008820074094200740102007400021074049
:101ED0008420074018E400E000E100E0082107400A
:101EE00070B572B60B4D2C68200000F0E9FE1D287D
:101EF00002DD62B600200CE080231B06C3409C4339
:101F00002C6062B648235843034B18180023036023
:101F1000436070BD84020020C0F9FF1F10B50400AB
:101F20000E484821201A00F01BFD1D2814D80C4B28
:101F30001B78002B07D00B4B1B78002B03D0200005
:101F4000FFF704FC08E072B680231B06C340064A74
:101F500011680B43136062B610BDC046C0F9FF1F85
:101F6000420500204B050020840200200B4B70B579
:101F70001B6805000A4C002B07D021883B2904D997
:101F80000022084898470023238023883B2B03D84E
:101F90005A1C2280034AD55470BDC04674050020E7
:101FA000EE050020F405002070B5094B1D78002DCA
:101FB0000CD1084C2168002908D04B88002B05D093
:101FC0009B000B800420FFF7FDFB256070BDC04621
:101FD0006405002090050020F7B5B44E01903368E9
:101FE0003500002B13D1B24B1B78002B00D1A7E199
:101FF0000520FFF77FFB3060002800D1A0E10488B6
:10200000002C04D1FFF78AFF3460200099E1286892
:1020100043889A0892008218946802880433934295
:1020200001D2438005E0FFF779FF0520FFF762FB4F
:1020300028600F23250022099E491A401D40260AC8
:1020400037000A702A001F40083A0137062A7FD855
:10205000019A002A02D0974200D071E1220B13406E
:10206000082D07D1082B00D06AE18022924B1A700C
:10207000924B21E0092D16D1092B00D060E1220EF0
:102080008D4B210C002A07D0902018708C4BD2B2B7
:102090001B68002B15D152E080201870874B1B68FD
:1020A000002B0ED14BE00A2D0FD10A2B00D047E1B7
:1020B000A022814B1A70834B1B68002B3FD0220E4D
:1020C000210CC9B2F8B2984739E00B2D07D10B2B80
:1020D00000D035E1B022784B1A707B4BECE70C2D29
:1020E00007D10C2B00D02BE1C022734B1A70774B19
:1020F00008E00D2D0ED10D2B00D021E1D0226E4B2A
:102100001A70734B1B68002B19D0210CC9B2F8B29E
:10211000984714E00E2B00D012E1E022664B1A70B3
:102120006C4B1B68002B0AD0FE226102480E920104
:10213000610C1140684A01438918F8B29847674B0F
:10214000220C1F70664B240E1A70664B1C70AAE09E
:10215000AB1EF0B2012B05D9052D6DD1F02879D930
:10216000F72877D0F1380E2800D9E9E000F0E4FB39
:10217000080A17E8E81EE823E82D3741E84B550028
:10218000594B0DE0594B1A68002A52D0FE236002C9
:10219000410E9B01600C18400843904749E0544BA6
:1021A0001B68200CC0B2002B42D142E0514B1B688F
:1021B000002B36D13DE0504B1B68002B31D14F4BEB
:1021C000F8201B68002B33D133E04D4B1B68002BEC
:1021D00027D14A4BFA201B68002B29D129E0494B13
:1021E0001B68002B1DD1454BFB201B68002B1FD10A
:1021F0001FE0454B1B68002B13D1404BFC201B6894
:10220000002B15D115E0414B1B68002B09D13B4B2E
:10221000FE201B68002B0BD10BE03D4B1B68002BF5
:1022200001D0984705E0354B1B68002B01D0FF20FB
:102230009847214B1E7082E7042D08D1F0B2FFF7BA
:1022400095FE200CC0B2FFF791FE200E76E06B1FCA
:10225000022B67D8F0B2FFF789FE052D08D0200CBD
:10226000C0B2FFF783FE072D02D1200EFFF77EFEDE
:10227000284B1B4A198811701A4A080A107000224C
:102280001A800D4BF0321A70234B1B68002B03D0C1
:10229000EF3A2248984706E0214B01201B68002BAB
:1022A0004FD01E48984701204BE0C04698050020BB
:1022B0004B050020F2050020EC050020A0050020C1
:1022C000A805002078050020A4050020680500204E
:1022D0007C0500206C05002000E0FFFFF3050020D6
:1022E000F0050020F1050020840500207005002085
:1022F0009C05002088050020500500205C0500207A
:10230000800500206005002094050020580500206D
:1023100054050020EE05002074050020F40500207F
:102320008C0500200F2D0BD1F72800D91AE7F028D3
:1023300003D0044B1B88002B02D0F0B2FFF716FE2F
:102340000020FEBDEE05002070B5114D2B68002B5E
:102350000CD0286843885A1CC3181C7A03889A42F8
:1023600012D3FFF7DBFD00232B600EE0094B1B7837
:10237000002B02D10120404208E00220FFF7BAF909
:1023800028600028E5D1F5E74280200070BDC046F6
:10239000B80500204B05002010B50D4C2368002B1C
:1023A00003D02268002A0ED103E00A4B1B78002BD1
:1023B00002D10120404209E00220FFF79BF9206092
:1023C0000028EED1F5E75388D318187A10BDC0461F
:1023D000B80500204B050020054B5888054B1A68AE
:1023E000002A03D0138852889B1AC0187047C04631
:1023F000E2050020B805002010B50A4B1B78002B21
:102400000FD0094C2068002803D0FFF787FD002378
:1024100023600220FFF76EF9002802D0FFF77EFD4F
:10242000F7E710BD4B050020B8050020314A012315
:10243000F0B50C00170085B0019002911370039362
:10244000002C53D02C4D2B68002B25D12B4E2C4B20
:102450001B78DBB2002B01D13B7017E00320FFF7A4
:1024600063F9072809D86B461B7B3B70FFF738FDE3
:10247000214B186000280FD13870013E214B002EEF
:1024800002D01A78002A04D001221A70012040429A
:102490002EE000F033F9DAE700221A4B29681A70AF
:1024A00040234A88981A2300844200D90300080078
:1024B00008308018D2184A800022E41A934204D0CF
:1024C000019EB65C86540132F8E7019AD318019355
:1024D0004B883F2B06D9402303200B80FFF772F96E
:1024E00000232B600522084B1A70A9E702983C7064
:1024F00005B0F0BDAD050020B00500200975000055
:102500004B050020B4050020AC05002007B56B4644
:10251000D871073301211800FFF788FF0EBDFFFFB8
:10252000012370B50E4C0F4D23702B68002B10D17A
:102530000D4B1B78002B02D1002020700FE00320F0
:10254000FFF7F2F80728F7D8FFF7CAFC2860002841
:10255000F2D02B6858884023181A0023237070BDCE
:10256000AD050020B00500204B050020F7B5124B4B
:102570001B78002B1FD00126104F114B3C681E709A
:102580000193104D002C09D000262E706388210085
:1025900023800320FFF716F93E6009E0FFF7A0FC57
:1025A000011E04D003202C70FFF70CF900E02E7000
:1025B0000023019A1370F7BD4B050020B0050020E1
:1025C000AD050020AC05002070B50E4B1C78E4B2C0
:1025D000002C15D10C4D2968002906D04B8803200A
:1025E0000B80FFF7EFF82C600AE0FFF779FC011E83
:1025F00003D00320FFF7E6F802E00122034B1A7034
:1026000070BDC046AD050020B0050020AC0500201F
:10261000EFF3108072B643425841C0B270470028B1
:1026200000D062B67047FFFF10B5FFF7F1FF0C4A0C
:102630001468002C10D063691360002B02D00022B4
:102640009A6101E0074A1360FFF7E9FF00232000C9
:102650006377A3689847E8E7FFF7E1FF10BDC0463E
:10266000C0050020C405002010B5FFF7DDFF10BD38
:10267000024A1368013313607047C04654040020B7
:1026800037B5022504002A00054901A801F0A0F988
:1026900023682A005B6801A9200098473EBDC04618
:1026A000CC3B000010B5FEF7ADF8FEF711FB00F0D3
:1026B00025F8FAE710B5FFF79FFE10BD10B5FFF73C
:1026C0006BFE10BD10B5FFF73FFE10BD10B5FFF754
:1026D00083FE10BD10B5FFF749FF10BD10B5FFF721
:1026E0001FFF10BD10B508001100FFF79FFE10BDC1
:1026F00010B50800FFF70AFF10BDFFFFF8B52F4C1B
:102700002278002A58D02E4E3378002B54D1013332
:1027100033701A420DD0FFF75FFE002801D000F0A1
:1027200009F9284B1B78002B03D00122237893430F
:10273000237023789B0712D50025234B1B78AB42CF
:102740000DD9224BAA00D7583B6838001B6998471F
:10275000002801D03B6998470135EDB2EDE7002331
:10276000337023785B0727D519490B68002B23D0DA
:10277000EFF30583002B1FD1EFF3108272B60868C8
:10278000002803D0134C2578002D03D0002A13D144
:1027900062B611E00123237043690B60002B01D066
:1027A0009D6101E00C490B60002A00D162B6002552
:1027B0008368457798472570F8BDC0469802002089
:1027C000D105002076030020E0050020D40500207C
:1027D000CC050020D0050020C80500201B4B1C4A5A
:1027E00019781C4B082901D1002102E00A2903D1E4
:1027F0002E311160132206E00C2901D1283100E0AE
:102800003C21116012221A60134B1A78134B002AD4
:1028100001D0002200E001221A60114B1A78114BFE
:10282000012A01D880220CE0042A01D8842208E081
:10283000082A01D8852204E0102A01D8862200E067
:1028400087221A600122084B1A70704799020020F3
:1028500008B003400CB00340D305002020B0034073
:102860009A02002024B00340D2050020F8B50600EB
:102870000D00170000243900300000F0F7F80B00BD
:102880003733DBB2092901D83031CBB230002B55B8
:10289000390000F065F8061E01D00134EBE72B1972
:1028A00058702B005A1B944206DD1A78295D197066
:1028B0002A550133013CF5E72800F8BD30B585B055
:1028C00072B670224121154B1A70154A1170154AC3
:1028D0003239117080221A701A7852B2002AFBDA4B
:1028E000114B186862B6114B984201D80A2358431D
:1028F00001AC0A222100FFF7B9FF00230C48E15C7C
:102900000500002905D05A008218013351800A2B96
:10291000F5D101335B002B7005B030BD00000240E3
:102920000700024006000240080002407F9698001F
:10293000600300207047FFFF02B471464908490058
:10294000095C49008E4402BC7047C04603B471461E
:10295000490840004900095A49008E4403BC7047A9
:10296000002243088B4274D303098B425FD3030ACE
:102970008B4244D3030B8B4228D3030C8B420DD3E1
:10298000FF22090212BA030C8B4202D3121209026F
:1029900065D0030B8B4219D300E0090AC30B8B42AD
:1029A00001D3CB03C01A5241830B8B4201D38B035B
:1029B000C01A5241430B8B4201D34B03C01A524100
:1029C000030B8B4201D30B03C01A5241C30A8B4243
:1029D00001D3CB02C01A5241830A8B4201D38B022E
:1029E000C01A5241430A8B4201D34B02C01A5241D2
:1029F000030A8B4201D30B02C01A5241CDD2C30944
:102A00008B4201D3CB01C01A524183098B4201D3BF
:102A10008B01C01A524143098B4201D34B01C01AAA
:102A2000524103098B4201D30B01C01A5241C30822
:102A30008B4201D3CB00C01A524183088B4201D391
:102A40008B00C01A524143088B4201D34B00C01A7D
:102A50005241411A00D20146524110467047FFE7E9
:102A600001B5002000F0F0F802BDC0460029F7D003
:102A700076E7704703460B437FD4002243088B421E
:102A800074D303098B425FD3030A8B4244D3030BF5
:102A90008B4228D3030C8B420DD3FF22090212BABA
:102AA000030C8B4202D31212090265D0030B8B4236
:102AB00019D300E0090AC30B8B4201D3CB03C01A20
:102AC0005241830B8B4201D38B03C01A5241430BFB
:102AD0008B4201D34B03C01A5241030B8B4201D3EB
:102AE0000B03C01A5241C30A8B4201D3CB02C01A56
:102AF0005241830A8B4201D38B02C01A5241430ACE
:102B00008B4201D34B02C01A5241030A8B4201D3BC
:102B10000B02C01A5241CDD2C3098B4201D3CB0163
:102B2000C01A524183098B4201D38B01C01A524112
:102B300043098B4201D34B01C01A524103098B4216
:102B400001D30B01C01A5241C3088B4201D3CB0001
:102B5000C01A524183088B4201D38B00C01A5241E4
:102B600043088B4201D34B00C01A5241411A00D294
:102B700001465241104670475DE0CA0F00D04942FD
:102B8000031000D34042534000229C4603098B426D
:102B90002DD3030A8B4212D3FC22890112BA030AF5
:102BA0008B420CD3890192118B4208D38901921177
:102BB0008B4204D389013AD0921100E08909C309FC
:102BC0008B4201D3CB01C01A524183098B4201D3FE
:102BD0008B01C01A524143098B4201D34B01C01AE9
:102BE000524103098B4201D30B01C01A5241C30861
:102BF0008B4201D3CB00C01A524183088B4201D3D0
:102C00008B00C01A5241D9D243088B4201D34B00EA
:102C1000C01A5241411A00D20146634652415B102C
:102C2000104601D34042002B00D54942704763460D
:102C30005B1000D3404201B5002000F005F802BD52
:102C40000029F8D016E770477047C0468446081C34
:102C50006146FFE71FB500F04DFB002801D40021BD
:102C6000C8421FBD10B500F0D9FA4042013010BD76
:102C700010B500F03FFB002801DB002010BD012053
:102C800010BDC04610B500F035FB002801DD002066
:102C900010BD012010BDC04610B500F0E7FA0028B5
:102CA00001DC002010BD012010BDC04610B500F0B1
:102CB000DDFA002801DA002010BD012010BDC04659
:102CC0001C2101231B04984201D3000C10391B0A5C
:102CD000984201D3000A08391B09984201D3000920
:102CE000043902A2105C40187047C0460403020277
:102CF000010101010000000000000000F8B54A02D7
:102D0000430244004E00C50F240E28009B09360ED6
:102D1000C90F92098D4259D0A01B002800DC8DE01C
:102D2000002E1AD1002A00D079E05A0704D00F22D1
:102D30001A40042A00D004335A0138D50134FF2C3C
:102D400000D189E028009B015B0AE4B25B02E40544
:102D50005B0A2343C0071843F8BDFF2CE5D0802150
:102D6000C9040A431B2800DD89E016002021C64063
:102D7000081A8240511E8A4132439B1A5A0114D5C7
:102D80009B019E093000FFF79BFF05388640844277
:102D900065DC041B330020200134E340041BA64003
:102DA000721E964100243343BFE75A07BFD1DF08A4
:102DB0002800FF2C2FD1002F00D187E08022D203E2
:102DC00013003B435B025B0AFF24BFE7A11B002902
:102DD00049DD002E29D0FF2CA7D08026F6043243EF
:102DE0001B2900DD8DE017002026CF40711A8A4094
:102DF000511E8A413A439B185A01D6D50134FF2C03
:102E000064D0012276491A405B080B4013438CE7DB
:102E1000031ECAD100207B025B0AE4B296E70138A8
:102E20000028AAD0FF2C9DD17FE7002A00D17CE7A3
:102E300001390029DFD0FF2CD2D176E7002820D13C
:102E4000601CC0B2012853DD80279E1AFF04374062
:102E50002FD0D61A0D0095E72800002376E7614BA6
:102E6000241A334061E700294DD1611CCEB2012EF6
:102E70002FDDFF292AD09B185B080C0055E70122A3
:102E80007BE7002C1BD1002B5BD0C04300280CD06B
:102E9000FF2E7ED01B2800DD92E01D002024C540BF
:102EA000201A8340581E83412B43D31A34000D004F
:102EB00064E7002E00D065E700200024ABE7FF2E7A
:102EC00067D08024E40440422343E3E7FF24002347
:102ED0003CE7002C61D1002B7ED0002A00D124E7F2
:102EE0009B185A0100D460E73E4A0C0013401CE7CF
:102EF000002C1ED1002B2FD1002A66D013000D000C
:102F000013E7012277E7002C1FD1002B5AD0C943C9
:102F100000290BD0FF2E50D01B295FDC1F0020247E
:102F2000CF40611A8B40591E8B413B439B183400A4
:102F300062E7002B1CD1002A4AD013000D00FF24A9
:102F4000F3E6130034000D00EFE6FF2E35D08024A9
:102F5000E40449422343DFE7002A00D1E5E6802765
:102F6000981AFF04074000D152E7D31A0D00DCE69F
:102F7000FF24002A00D1D8E68020DB08C0030342EA
:102F800004D0D208024201D113000D00DB00FF245F
:102F9000CBE61300FF240D00C7E6002B0DD0FF2465
:102FA000002A00D1C1E68021DB08C9030B42EDD025
:102FB000D2080A42EAD11300E8E71300FF24B4E67E
:102FC000012372E713003400AFE60027002022E758
:102FD00080270020FF03F1E61300A6E60123A5E702
:102FE000FFFFFF7DFFFFFFFBF0B5564644465F46FF
:102FF0004D46F0B444024600C70F83B08846650AC8
:10300000360EBA463DD0FF2E22D00023EC0080259C
:1030100099469B46ED0425437F3E43465C0258009B
:10302000DB0F640A000E984636D0FF2830D080238C
:103030000021E400DB041C437F38301A019048462D
:1030400042460843724E800030587A40130087464B
:10305000002D44D108239946063B9B46DDE701221B
:10306000FF2000241A406402C305640AD2071C43EF
:103070001443200003B03CBC90469946A246AB46A0
:10308000F0BD002D20D104239946033B9B46C4E7A5
:10309000002C17D1022102E0002C0AD10121321AA2
:1030A00001924A4643460A435A48920082587B405E
:1030B00097462000FFF704FE431F76309C404042B5
:1030C0000021BAE70321B8E72800FFF7F9FD431F05
:1030D0009D4000237630464299469B469DE70C234F
:1030E0009946093B9B4698E780240022E403FF2091
:1030F000B9E70024C2468B465A465346022AAED050
:10310000032A7DD0012A31D1012200201A40002457
:10311000A9E70122101A1B2856DD1A4000200024BE
:10312000A1E78023DB031D424BD18023DB032B432C
:103130005C02640A3A00FF2095E76D016001854258
:1031400030D2019A0024013A01921B220127290062
:1031500064006D00002901DBA84201D82D1A3C4310
:10316000013A002AF3D16A1E95412C4301987F3021
:103170000028CEDD620704D00F222240042A00D0AE
:103180000434220103D5244A019814408030FE28DB
:1031900000DD64E70122A401640AC0B21A4062E7BC
:1031A0002C00A9E72D1A1A220124CFE76B02BCD507
:1031B00000248023DB031C436402640A4246FF2090
:1031C00051E71C42B3D1F4E721002022C140101A7C
:1031D0008440621E94410C43620704D00F222240B7
:1031E000042A00D00434620104D5012201201A40CF
:1031F000002438E70122A401640A1A40002032E7C3
:103200008023DB031C436402640A5246FF202AE742
:10321000543C0000943C0000FFFFFFF7430270B5F0
:1032200042004C005D0AC30F4802120E460A240EEB
:10323000C90FFF2A0FD0FF2C11D00120A24200D0CD
:1032400070BDB542FCD18B420DD0002AF8D12800C8
:10325000431E9841F4E70120002DF1D1EBE7012056
:10326000002EEDD1E9E70020EAE7C0464302F0B5C1
:1032700042005D0AC30F4802440A4800120E000EC5
:10328000C90FFF2A1FD0FF2822D0002A09D16E4281
:103290006E4100280FD1002C0DD10020002D09D047
:1032A00005E0002801D1002C01D08B4213D05842F8
:1032B00001231843F0BD002EF7D0484241410120C0
:1032C00049420843F6E7002DDDD002204042F1E7F5
:1032D000002CDAD0F9E78242E9DC04DBA542E6D82B
:1032E0000020A542E6D25842434101205B421843E8
:1032F000E0E7C0464302F0B542004C005E0AC30F4F
:103300004802120E450A240EC90FFF2A17D0FF2CBF
:1033100019D0002A0BD170427041002C17D0002820
:1033200007D048424141012049420843F0BD002CEA
:1033300013D08B4214D0584201231843F6E70220E1
:10334000002EF3D1E3E70220002DEFD1E1E7002DBD
:10335000E5D10020002EE9D0EDE7002DE9D1EAE724
:10336000A242E8DC04DBAE42E5D80020AE42DDD26A
:103370005842434101205B421843D7E7F0B5574616
:103380004E4645464300E0B446028846760A1F0E84
:10339000C40F002F47D0FF2F25D0002380259A4649
:1033A0009946F600ED042E437F3F434642465D02B8
:1033B000D20F5B006D0A1B0E904640D0FF2B39D018
:1033C00080220020ED00D20415437F3BFB184246CB
:1033D0005746591C62408C4607430F2F5CD86F49F3
:1033E000BF00C9598F46002E45D108239A46063B97
:1033F0009946DAE7424602282DD0032800D1C3E0DF
:10340000012800D0A2E0002500260240D4B27602B6
:10341000ED05760A2E43E407264330001CBC904697
:103420009946A246F0BD002E1AD104239A46033BCA
:103430009946BAE72A00511E8A41901CC6E701202E
:10344000002DC3D02800FFF73BFC431F76309D4082
:1034500043420020BAE70124FF2514400026D6E7A6
:103460003000FFF72DFC431F9E400023763047427B
:103470009A46994699E70C239A46093B994694E760
:1034800080260024F603FF25C1E735004846B2E751
:10349000350022004846AEE72904090C0800370C25
:1034A0003604360C2C0C7943704367437443060C86
:1034B00064183619B14203D980214902884647442D
:1034C0000004000C310409188D01681E8541890E25
:1034D0002943350CED19AD010D43290104D5012314
:1034E00069081D4063460D4319007F31002925DD21
:1034F000680704D00F202840042800D00435280194
:1035000003D5274980330D401900FE29A3DC01248F
:10351000AD016E0A1440CDB279E78020C0030642A7
:1035200007D0054205D128434602760A4446FF25C6
:103530006DE706437602760AFF2568E70124611AE3
:103540001B2905DD14400025002660E76346CBE714
:103550002E002023CE40591A8D406B1E9D412E43D4
:10356000730704D00F233340042B00D004367301BB
:1035700004D5012401251440002648E70124B601A2
:10358000760A1440002542E780260124F6032E43E4
:103590007602760A1440FF2539E7C046D43C000085
:1035A000FFFFFFF7F8B54A024E0043024400240E25
:1035B000C50F9B09360EC90F9209FF2E00D183E07B
:1035C00001204140A01BA9425CD0002800DC95E00E
:1035D000002E1CD1002A00D081E05A0704D00F220F
:1035E0001A40042A00D004335A013BD50134FF2C81
:1035F00000D191E001209B015B0AE4B205405B022F
:10360000E4055B0AED0723432B431800F8BDFF2CAC
:10361000E3D08021C9040A431B2800DD90E0160096
:103620002021C640081A8240511E8A4132439B1A0B
:103630005A0115D59B019E093000FFF741FB053863
:10364000864084426CDC041B330020200134E340BC
:10365000041BA640721E964100243343BDE70D00B3
:103660005A07BCD1DF0801231D40FF2C33D1002FA6
:1036700000D190E08022D20313003B435B025B0A3F
:10368000FF24BCE700284FDD002E2ED0FF2CA4D055
:103690008025ED042A431B2800DD97E01600202535
:1036A000C640281A8240501E824132439B185A015C
:1036B000D5D50134FF2C6DD001227B481A405B0820
:1036C000034013430D0088E7002A00D07AE777E72C
:1036D000031EC5D100257B025B0AE4B28FE70138E7
:1036E0000028A4D0FF2C97D177E7002A00D174E7F7
:1036F00001380028DAD0FF2CCDD16EE7002821D187
:10370000601CC0B2012858DD80279E1AFF04374094
:103710002FD0D61A0D008FE701231D4000236EE73E
:10372000624B241A334058E7002851D1601CC6B2BE
:10373000012E33DDFF282DD09B185B0804004CE7D9
:10374000012274E7002C1AD0FF2E1FD08024E4043D
:10375000404223431B2800DD96E01D002024C54085
:10376000201A8340581E83412B43D31A34000D0086
:103770005EE7002E00D05FE700250024ABE7002BBA
:1037800044D0C0430028F0D0FF2EE3D11300FF2423
:103790000D0022E70D00FF24002330E7002C5DD14F
:1037A000002B7DD0002A00D117E79B185A0100D4C6
:1037B00056E73E4A040013400FE7002C1ED1002BB1
:1037C0002FD1002A65D013000D0006E701226DE716
:1037D000002C1FD1002B59D0C04300280BD0FF2E46
:1037E0004FD01B285EDC1D002024C540201A8340DA
:1037F000581E83412B439B18340058E7002B1CD1E3
:10380000002A49D013000D00FF24E6E6130034001F
:103810000D00E2E6FF2E34D08024E404404223432E
:10382000DFE7002A00D1D8E68027981AFF04074076
:1038300000D14DE7D31A0D00CFE6FF24002A00D1B6
:10384000CBE68020DB08C003034204D0D20802424A
:1038500001D113000D00DB00FF24BEE6002B10D0C9
:10386000FF24002A00D1B8E68020DB08C003034211
:1038700003D0D208024200D11300DB000D00FF2468
:10388000ABE61300FF24A8E601236EE71300340023
:10389000A3E6002700251EE780270025FF03E9E6B1
:1038A00013009AE60123A6E7FFFFFF7DFFFFFFFB62
:1038B0004302590A4300C20F1B0E00207E2B0EDD6F
:1038C0009D2B0DDC802000040143952B0BDC962002
:1038D000C31AD9400B005842002A00D11800704783
:1038E000034BD018FBE7963B99400B00F3E7C0462B
:1038F000FFFFFF7F70B5002830D0C317C5185D40AB
:10390000C40F2800FFF7DCF99E231B1A962B0DDC51
:103910009622D21A95406A02520AD8B25202C005C3
:10392000520AE40702432243100070BD992B19DCB0
:103930009922D21A9540124A2A40690704D00F21D1
:103940000D40042D00D00432510103D50C4B1A4018
:103950009F231B1A9201520AD8B2DFE700240020ED
:103960000022DBE705222E00121AB921D6402A00D8
:10397000C91A8A40551EAA4135001543DBE7C046E7
:10398000FFFFFFFB0E4B70B500251E000D4CE41A27
:10399000A410A54204D0AB00F35898470135F8E7CE
:1039A00000F0B8F9084B00251E00084CE41AA410DA
:1039B000A54204D0AB00F35898470135F8E770BD35
:1039C000203D0000203D0000203D0000283D00007B
:1039D000002310B59A4203D0CC5CC4540133F9E7FC
:1039E00010BD0023C25C0133002AFBD1581E704772
:1039F0006C6F6E6750726573735374617274427446
:103A00006E006C6F6E67507265737344757261748B
:103A1000696F6E42746E006C6F6E6750726573737F
:103A200053746F7042746E00636C69636B42746EA2
:103A300000FFFFFF34800440000040000011100030
:103A4000651000000C0800000002000000020000E9
:103A50000B07000040020000000200000D0E0000F5
:103A600040020000000200000A0200000002000004
:103A700000020000010100008023037003785BB2A4
:103A8000002BFBDA7047FFFF420000F840A0044023
:103A900001000000420000F844A0044002000000C1
:103AA000C00000F800C0044001000000000000F861
:103AB0000490044002000000000000F80890044058
:103AC00004000000C00000F81CC00440800000009A
:103AD000C00000F810C0044010000000C00000F852
:103AE00008C0044004000000C00000F80CC00440FE
:103AF00008000000800000F80CB00440080000003E
:103B0000800000F810B0044010000000800000F8B1
:103B100018B0044040000000800000F81CB00440D1
:103B200080000000800000F814B004402000000075
:103B3000C00000F804C0044002000000800000F84B
:103B400000B0044001000000400000F800A0044064
:103B500001000000400000F804A004400200000042
:103B6000400000F80CA0044008000000400000F8ED
:103B700008A0044004000000C00000F814C0044085
:103B800020000000C00000F818C004404000000001
:103B9000800000F804B0044002000000800000F83B
:103BA00008B0044004000000020100F850D00440B6
:103BB00010000000020100F854D004402000000072
:103BC000030100F878D00440400000000D0AFFFF18
:103BD0000000000000000000F1260000E5260000C3
:103BE000DD260000D5260000CD260000C5260000F9
:103BF000BD260000B52600001519151519FFFFFF99
:103C0000000100009B0200201200000000020000E2
:103C1000C602002095000000000300005C030020A5
:103C20000000000001030904AE02002000000000B3
:103C3000020309043002002000000000030309040D
:103C400060030020000000000000000000000000F1
:103C5000000000003A3100005E3000001C3100001E
:103C6000F43000001C310000E83000001C3100007E
:103C7000F43000005E3000005E300000E8300000EC
:103C8000F4300000A0310000A0310000A03100009D
:103C9000223100005E3000005E300000083100007C
:103CA000F230000008310000E83000000831000068
:103CB000F23000005E3000005E300000E8300000AE
:103CC000F2300000A0310000A0310000A03100005F
:103CD000AC31000098340000F6330000F6330000E9
:103CE000F43300008A3400008A340000803400007D
:103CF000F43300008A340000803400008A3400006D
:103D0000F433000090340000903400009034000040
:103D10001A350000F8B5C046F8BC08BC9E4670478E
:083D2000390400009D0F0000B2
:043D2800F8B5C046E4
:103D2C000E034D00490056004100310055000000C3
:103D3C001000000011000000120000000200000042
:103D4C000500000067E6964508000000006007408B
:103D5C00343A0000000000000000000000000000E9
:103D6C000000000000000000000000000000000047
:103D7C0000000000FFFFFFFFD83B00000000000028
:103D8C00E803000000000000010A04120110010009
:103D9C00000040C0168904730201020301001803DD
:103DAC005400650065006E007300790064007500B6
:103DBC0069006E006F0009029500030100C0320813
:103DCC000B000202020100090400000102020100C2
:103DDC000524001001052401010104240206052418
:103DEC000600010705810310004009040100020AC6
:103DFC000000000705020240000007058302400096
:103E0C00000904020002010300000724010001253F
:103E1C000006240201010006240202020009240308
:103E2C00010301020100092403020401010100093C
:103E3C00050502400000000005250101010905846B
:103E4C0002400000000005250101030004030904E1
:103E5C000C03000000000000000000000000000047
:083E6C0000000000000001004D
:00000001FF
